:020000020000FC
:0200000026C018
:10002C002FC018951895189518951895189518951A
:10003C00189518951895189518951895189518954C
:10004C001895B1E0A0E0D2E0C0E00FEF07BB00E0F4
:10005C0002BF01E003BF789401E009BF00C001E0DA
:10006C000EBF00E00DBFF0E008BB11E00E944200A3
:10007C0008B3012708BBF8CF31E03A95F1F70895A2
:10008C00F03009F00FC00F931F932F933F93BEB71F
:10009C00ADB7DEBFCDBF2F911F910F917894E1E0EA
:1000AC00E8BF13C0DEBFCDBF0F931F932F933F93B9
:1000BC00DEB7CDB7BEBFADBF3F912F911F910F9152
:1000CC007894E1E0E8BFF0E00895F1E008BB12E0BD
:1000DC000E94740008B3012708BBFACF31E03A95AF
:0E00EC00F1F708950000000000000000FBCFB7
:00000001FF
